:020000040800F2
:100000000000032031080008850800088508000862
:100010008508000885080008850800080000000021
:10002000000000000000000000000000730600084F
:100030008508000800000000810600088F060008FF
:10004000850800088508000885080008850800085C
:10005000850800088508000885080008850800084C
:10006000850800088508000885080008850800083C
:10007000850800088508000885080008850800082C
:10008000850800088508000885080008850800081C
:10009000850800088508000885080008850800080C
:1000A00085080008850800088508000885080008FC
:1000B00085080008850800088508000885080008EC
:1000C00085080008850800088508000885080008DC
:1000D00085080008850800088508000885080008CC
:1000E00085080008850800088508000885080008BC
:1000F00085080008850800088508000885080008AC
:10010000850800088508000885080008850800089B
:10011000850800088508000885080008850800088B
:10012000850800088508000885080008850800087B
:0C01300085080008850800088508000804
:10013C0010B5054C237833B9044B13B10448AFF315
:10014C0000800123237010BD24000020000000005B
:10015C00902D000808B5034B1BB103490348AFF3BE
:10016C00008008BD0000000028000020902D000831
:10017C0053B94AB9002908BF00281CBF4FF0FF3102
:10018C004FF0FF3000F074B9ADF1080C6DE904CEFE
:10019C0000F006F8DDF804E0DDE9022304B0704756
:1001AC002DE9F047089D04468E46002B4DD18A421E
:1001BC00944669D9B2FA82F252B101FA02F3C2F151
:1001CC00200120FA01F10CFA02FC41EA030E9440E2
:1001DC004FEA1C48210CBEFBF8F61FFA8CF708FB03
:1001EC0016E341EA034306FB07F199420AD91CEBDB
:1001FC00030306F1FF3080F01F81994240F21C810D
:10020C00023E63445B1AA4B2B3FBF8F008FB103354
:10021C0044EA034400FB07F7A7420AD91CEB040489
:10022C0000F1FF3380F00A81A74240F20781644459
:10023C00023840EA0640E41B00261DB1D4400023DE
:10024C00C5E900433146BDE8F0878B4209D9002D42
:10025C0000F0EF800026C5E9000130463146BDE8CC
:10026C00F087B3FA83F6002E4AD18B4202D3824236
:10027C0000F2F980841A61EB030301209E46002DE5
:10028C00E0D0C5E9004EDDE702B9FFDEB2FA82F23A
:10029C00002A40F09280A1EB0C014FEA1C471FFA98
:1002AC008CFE0126200CB1FBF7F307FB131140EA7F
:1002BC0001410EFB03F0884208D91CEB010103F14C
:1002CC00FF3802D2884200F2CB804346091AA4B20E
:1002DC00B1FBF7F007FB101144EA01440EFB00FEE2
:1002EC00A64508D91CEB040400F1FF3102D2A64547
:1002FC0000F2BB800846A4EB0E0440EA03409CE7E6
:10030C00C6F12007B34022FA07FC4CEA030C20FA92
:10031C0007F401FA06F31C43F9404FEA1C4900FAB2
:10032C0006F3B1FBF9F8200C1FFA8CFE09FB18112F
:10033C0040EA014108FB0EF0884202FA06F20BD9A2
:10034C001CEB010108F1FF3A80F08880884240F2F2
:10035C008580A8F102086144091AA4B2B1FBF9F036
:10036C0009FB101144EA014100FB0EFE8E4508D931
:10037C001CEB010100F1FF346CD28E456AD90238B6
:10038C00614440EA0840A0FB0294A1EB0E01A1429B
:10039C00C846A64656D353D05DB1B3EB080261EB09
:1003AC000E0101FA07F722FA06F3F1401F43C5E9E3
:1003BC00007100263146BDE8F087C2F12003D84019
:1003CC000CFA02FC21FA03F3914001434FEA1C475B
:1003DC001FFA8CFEB3FBF7F007FB10360B0C43EA4D
:1003EC00064300FB0EF69E4204FA02F408D91CEBFD
:1003FC00030300F1FF382FD29E422DD902386344FB
:10040C009B1B89B2B3FBF7F607FB163341EA03419A
:10041C0006FB0EF38B4208D91CEB010106F1FF38E9
:10042C0016D28B4214D9023E6144C91A46EA0046E0
:10043C0038E72E46284605E70646E3E61846F8E672
:10044C004B45A9D2B9EB020864EB0C0E0138A3E7BB
:10045C004646EAE7204694E74046D1E7D0467BE79C
:10046C00023B614432E7304609E76444023842E714
:10047C00704700BF70B50D4D0D4C641BA4100026C9
:10048C00A64209D10B4D0C4C02F07CFC641BA41051
:10049C000026A64205D170BD55F8043B984701369D
:1004AC00EEE755F8043B98470136F2E7A42E000816
:1004BC00A42E0008A42E0008A82E0008024403460F
:1004CC00934200D1704703F8011BF9E780B500AFE8
:1004DC00224B234A1A60214B4FF416525A601F4B81
:1004EC0000229A601D4B0022DA601C4B00221A611C
:1004FC001A4B0C225A61194B00229A61174B00229D
:10050C00DA61164B00221A62144B00225A62134B0A
:10051C0000229A62114801F06FFE0346002B01D0B5
:10052C0000F09EF800210D4802F062FB0346002B00
:10053C0001D000F095F80021084802F097FB034623
:10054C00002B01D000F08CF8044802F018FB034695
:10055C00002B01D000F084F800BF80BD40000020CB
:10056C000038014080B59AB000AF07F12003482253
:10057C0000211846FFF7A2FF3B1D00221A605A60AB
:10058C009A60DA601A615A619A61264B1B6823F4EF
:10059C00C063244A43F400731360224B1B6803F4BA
:1005AC00C0633B603B6820233B620123FB63002359
:1005BC003B6460237B640223FB6401233B650023C3
:1005CC007B652023BB654FF40023FB654FF0005384
:1005DC007B664FF0C0633B6607F12003184600F0C2
:1005EC00BBFF0346002B01D000F03AF86F237B6071
:1005FC000323BB600023FB6000233B6100237B6172
:10060C008023BB610023FB613B1D0321184601F0D5
:10061C0031FB0346002B01D000F022F800BF6837F5
:10062C00BD4680BD0004005880B500AF00F026F92F
:10063C00FFF798FFFFF74AFF41F288330D22064976
:10064C00064801F029FE0346002B01D000F008F803
:10065C000023184680BD00BF080000204000002089
:10066C0080B400AFFEE780B400AF00BFBD465DF8BC
:10067C00047B704780B400AF00BFBD465DF8047BBF
:10068C00704780B500AF00F053F900BF80BD80B457
:10069C0085B000AF78604FF0B043DA6C4FF0B041EA
:1006AC007B681343CB644FF0B043DA6C7B68134028
:1006BC00FB60FB6800BF1437BD465DF8047B7047D8
:1006CC0080B485B000AF78604FF0B0431A6E4FF035
:1006DC00B0417B6813430B664FF0B0431A6E7B68D6
:1006EC001340FB60FB6800BF1437BD465DF8047B0C
:1006FC00704780B400AF00BFBD465DF8047B704707
:10070C0080B588B000AF786007F10C0300221A6046
:10071C005A609A60DA601A617B681B680E4A9342D1
:10072C0016D14FF48040FFF7CBFF0220FFF7AFFF4D
:10073C00C023FB6002233B6101237B610023BB616F
:10074C000723FB6107F10C031946044800F000FA7B
:10075C0000BF2037BD4680BD003801400004004872
:10076C0080B400AF264B00229A60254BD3F888301A
:10077C00234A43F47003C2F888304FF0B0431B682F
:10078C004FF0B04243F0010313604FF0B0434FF40D
:10079C00E0229A604FF0B0431A684FF0B041194B09
:1007AC0013400B604FF0B043D3F894304FF0B0428D
:1007BC0023F00503C2F894304FF0B043D3F89830CF
:1007CC004FF0B04223F00103C2F898304FF0B04321
:1007DC000D4ADA604FF0B0430B4A1A614FF0B04348
:1007EC001B684FF0B04223F4802313604FF0B043EA
:1007FC0000229A6100BFBD465DF8047B704700BFC4
:10080C0000ED00E0FBFEF6FA00100422D458C450B0
:10081C000433C4188C42F9D3704703600430884207
:10082C00FBD370470C488546FFF79AFF0B480C49E1
:10083C000C4A0023FFF7EDFF0B480C490023FFF790
:10084C00EEFF0B480B490023FFF7E9FFFFF712FE01
:10085C00FFF7EAFEFEE7000000000320080000207E
:10086C0024000020AC2E000824000020D40000201E
:10087C000000032000000320FEE7000080B582B0DA
:10088C0000AF0023FB710C4B1B680B4A43F48073C5
:10089C001360032000F02AF9002000F00FF8034643
:1008AC00002B02D00123FB7101E0FFF722FFFB7943
:1008BC0018460837BD4680BD0040005880B584B04E
:1008CC0000AF78600023FB73174B1B78002B24D0F0
:1008DC0001F07EFB0246144B1B7819464FF47A73D9
:1008EC00B3FBF1F3B2FBF3F3184600F024F9034623
:1008FC00002B0FD17B680F2B09D8002279684FF0A1
:10090C00FF3000F0FEF8094A7B68136007E0012312
:10091C00FB7304E00123FB7301E00123FB73FB7BFE
:10092C0018461037BD4680BD200000201C0000205A
:10093C0080B400AF064B1B781A46064B1B68134459
:10094C00044A136000BFBD465DF8047B704700BFCE
:10095C0020000020D000002080B400AF034B1B68A7
:10096C001846BD465DF8047B704700BFD0000020E0
:10097C0080B400AF034B1B681846BD465DF8047B82
:10098C00704700BF1C00002080B485B000AF7860B9
:10099C007B6803F00703FB600C4BDB68BB60BA6839
:1009AC004FF6FF031340BB60FB681A02BB6813438E
:1009BC0043F0BF6343F40033BB60044ABB68D360AD
:1009CC0000BF1437BD465DF8047B704700ED00E0B6
:1009DC0080B400AF044BDB681B0A03F00703184616
:1009EC00BD465DF8047B704700ED00E080B483B039
:1009FC0000AF03463960FB7197F90730002B0ADB17
:100A0C003B68DAB20C4997F907301201D2B20B44A9
:100A1C0083F800230AE03B68DAB20849FB7903F05B
:100A2C000F03043B1201D2B20B441A7600BF0C37F1
:100A3C00BD465DF8047B704700E100E000ED00E08E
:100A4C0080B489B000AFF860B9607A60FB6803F0DD
:100A5C000703FB61FB69C3F10703042B28BF0423C5
:100A6C00BB61FB690433062B02D9FB69033B00E035
:100A7C0000237B614FF0FF32BB6902FA03F3DA43C8
:100A8C00BB681A407B699A404FF0FF317B6901FAD1
:100A9C0003F3D9437B680B40134318462437BD46F8
:100AAC005DF8047B7047000080B582B000AF7860C1
:100ABC007B68013BB3F1807F01D301230FE00A4A2D
:100ACC007B68013B53600F214FF0FF30FFF78EFF27
:100ADC00054B00229A60044B07221A60002318462B
:100AEC000837BD4680BD00BF10E000E080B582B085
:100AFC0000AF78607868FFF747FF00BF0837BD4646
:100B0C0080BD80B586B000AF0346B9607A60FB73D8
:100B1C00FFF75EFF78617A68B9687869FFF790FF34
:100B2C00024697F90F3011461846FFF75FFF00BFDA
:100B3C001837BD4680BD80B582B000AF786078684C
:100B4C00FFF7B2FF034618460837BD4680BD0000CC
:100B5C0080B487B000AF7860396000237B614CE1D2
:100B6C003B681A6801217B6901FA03F31340FB60AF
:100B7C00FB68002B00F03E813B685B6803F00303CD
:100B8C00012B05D03B685B6803F00303022B30D1CB
:100B9C007B689B683B617B695B00032202FA03F371
:100BAC00DB433A6913403B613B68DA687B695B0065
:100BBC0002FA03F33A6913433B617B683A699A6022
:100BCC007B685B683B6101227B6902FA03F3DB43C0
:100BDC003A6913403B613B685B681B0903F00102F7
:100BEC007B6902FA03F33A6913433B617B683A6908
:100BFC005A603B685B6803F00303032B17D07B68D8
:100C0C00DB683B617B695B00032202FA03F3DB4385
:100C1C003A6913403B613B689A687B695B0002FA56
:100C2C0003F33A6913433B617B683A69DA603B68CA
:100C3C005B6803F00303022B23D17B69DA087B6822
:100C4C00083253F822303B617B6903F007039B00A9
:100C5C000F2202FA03F3DB433A6913403B613B6812
:100C6C001A697B6903F007039B0002FA03F33A69E4
:100C7C0013433B617B69DA087B680832396943F8B6
:100C8C0022107B681B683B617B695B00032202FAC4
:100C9C0003F3DB433A6913403B613B685B6803F049
:100CAC0003027B695B0002FA03F33A6913433B616D
:100CBC007B683A691A603B685B6803F44033002B2D
:100CCC0000F09880544A7B699B08023352F8233019
:100CDC003B617B6903F003039B000F2202FA03F3D1
:100CEC00DB433A6913403B617B68B3F1904F19D0F9
:100CFC007B684A4A934213D07B68494A93420DD091
:100D0C007B68484A934207D07B68474A934201D19B
:100D1C00042308E0072306E0032304E0022302E097
:100D2C00012300E000237A6902F003029200934051
:100D3C003A6913433B6138497B699B0802333A6932
:100D4C0041F82320394B1B683B61FB68DB433A6954
:100D5C0013403B613B685B6803F48013002B03D0AA
:100D6C003A69FB6813433B61304A3B6913602F4B74
:100D7C005B683B61FB68DB433A6913403B613B6852
:100D8C005B6803F40013002B03D03A69FB68134330
:100D9C003B61264A3B695360244BD3F880303B615E
:100DAC00FB68DB433A6913403B613B685B6803F4C7
:100DBC008033002B03D03A69FB6813433B611B4A19
:100DCC003B69C2F88030194BD3F884303B61FB6827
:100DDC00DB433A6913403B613B685B6803F40033C7
:100DEC00002B03D03A69FB6813433B610F4A3B6904
:100DFC00C2F884307B6901337B613B681A687B697C
:100E0C0022FA03F3002B7FF4ABAE00BF00BF1C37FC
:100E1C00BD465DF8047B70470000014000040048AB
:100E2C0000080048000C004800100048000800585A
:100E3C0080B400AF054B1B68044A43F48073136005
:100E4C0000BFBD465DF8047B704700BF000400582E
:100E5C0080B400AF044B1B6803F4C0631846BD4656
:100E6C005DF8047B704700BF0004005880B400AFED
:100E7C004FF0B0431B6803F48013B3F5801F01D10E
:100E8C00012300E000231846BD465DF8047B704743
:100E9C0080B400AF4FF0B0431B684FF0B04243F446
:100EAC008033136000BFBD465DF8047B704780B48F
:100EBC0000AF4FF0B0431B684FF0B04223F48033C7
:100ECC00136000BFBD465DF8047B704780B400AF73
:100EDC004FF0B0431B6803F40033B3F5003F01D16E
:100EEC00012300E000231846BD465DF8047B7047E3
:100EFC0080B400AF4FF0B0431B684FF0B04243F4E6
:100F0C008073136000BFBD465DF8047B704780B4EE
:100F1C0000AF4FF0B0431B684FF0B04223F4807326
:100F2C00136000BFBD465DF8047B704780B400AF12
:100F3C004FF0B0431B6803F48063B3F5806F01D1AD
:100F4C00012300E000231846BD465DF8047B704782
:100F5C0080B483B000AF78604FF0B0435B6823F08F
:100F6C00FE427B681B064FF0B04113434B6000BF41
:100F7C000C37BD465DF8047B704780B400AF4FF072
:100F8C00B043D3F898304FF0B04243F00103C2F8AD
:100F9C00983000BFBD465DF8047B704780B400AF4D
:100FAC004FF0B043D3F898304FF0B04223F0010328
:100FBC00C2F8983000BFBD465DF8047B704780B422
:100FCC0000AF4FF0B043D3F8983003F00203022B7C
:100FDC0001D1012300E000231846BD465DF8047BD7
:100FEC00704780B400AF4FF0B043D3F890304FF05F
:100FFC00B04243F00103C2F8903000BFBD465DF82B
:10100C00047B704780B400AF4FF0B043D3F89030FE
:10101C004FF0B04223F00103C2F8903000BFBD4640
:10102C005DF8047B704780B400AF4FF0B043D3F849
:10103C0090304FF0B04243F00403C2F8903000BF40
:10104C00BD465DF8047B704780B400AF4FF0B043F1
:10105C00D3F890304FF0B04223F00403C2F8903034
:10106C0000BFBD465DF8047B704780B400AF4FF005
:10107C00B043D3F8903003F00203022B01D10123CB
:10108C0000E000231846BD465DF8047B704780B431
:10109C0000AF4FF0B043D3F894304FF0B04243F070
:1010AC000103C2F8943000BFBD465DF8047B704765
:1010BC0080B400AF4FF0B043D3F894304FF0B0424F
:1010CC0023F00103C2F8943000BFBD465DF8047BE9
:1010DC00704780B400AF4FF0B043D3F8943003F0B6
:1010EC000203022B01D1012300E000231846BD4668
:1010FC005DF8047B704780B400AF4FF0B043D3F879
:10110C0094304FF0B04243F00403C2F8943000BF67
:10111C00BD465DF8047B704780B400AF4FF0B04320
:10112C00D3F894304FF0B04223F00403C2F894305B
:10113C0000BFBD465DF8047B704780B400AF4FF034
:10114C00B043D3F8943003F00803082B01D10123EA
:10115C0000E000231846BD465DF8047B704780B460
:10116C0083B000AF78604FF0B043D3F8943023F4E1
:10117C0070627B681B024FF0B0411343C1F894308E
:10118C0000BF0C37BD465DF8047B704780B400AFE0
:10119C004FF0B0431B684FF0B04243F001031360B3
:1011AC0000BFBD465DF8047B704780B400AF4FF0C4
:1011BC00B0431B684FF0B04223F00103136000BF33
:1011CC00BD465DF8047B704780B400AF4FF0B04370
:1011DC001B6803F00203022B01D1012300E0002362
:1011EC001846BD465DF8047B704780B483B000AFF1
:1011FC0078604FF0B0431B6823F0F0024FF0B04121
:10120C007B6813430B6000BF0C37BD465DF8047B55
:10121C00704780B483B000AF4FF0B0431B6803F04D
:10122C00F0037B607B68B02B01D9B0237B607B68BB
:10123C0018460C37BD465DF8047B704780B483B00C
:10124C0000AF78604FF0B0435B6823F47F427B685B
:10125C001B024FF0B04113434B6000BF0C37BD462F
:10126C005DF8047B704780B483B000AF78604FF0BA
:10127C00B0439B6823F003024FF0B0417B681343EB
:10128C008B6000BF0C37BD465DF8047B704780B4A3
:10129C0000AF4FF0B0439B6803F00C031846BD46FB
:1012AC005DF8047B704780B483B000AF78604FF07A
:1012BC00B0439B6823F0F0024FF0B0417B681343BE
:1012CC008B6000BF0C37BD465DF8047B704780B463
:1012DC0083B000AF78604FF0B043D3F8083123F0FF
:1012EC00F0024FF0B0417B681343C1F8083100BFE6
:1012FC000C37BD465DF8047B704780B483B000AFFB
:10130C0078604FF0B043D3F8083123F00F027B68BC
:10131C001B094FF0B0411343C1F8083100BF0C3723
:10132C00BD465DF8047B704780B483B000AF786035
:10133C004FF0B0439B6823F4E0624FF0B0417B6800
:10134C0013438B6000BF0C37BD465DF8047B7047C0
:10135C0080B483B000AF78604FF0B0439B6823F447
:10136C0060524FF0B0417B6813438B6000BF0C3769
:10137C00BD465DF8047B704780B400AF4FF0B043BE
:10138C009B6803F0F0031846BD465DF8047B70477C
:10139C0080B400AF4FF0B043D3F808311B0103F019
:1013AC00F0031846BD465DF8047B704780B400AF6F
:1013BC004FF0B0439B6803F4E0631846BD465DF8FC
:1013CC00047B704780B400AF4FF0B0439B6803F4CC
:1013DC0060531846BD465DF8047B704780B400AF7F
:1013EC004FF0B0431B684FF0B04243F08073136072
:1013FC0000BFBD465DF8047B704780B400AF4FF072
:10140C00B0431B684FF0B04223F08073136000BFF1
:10141C00BD465DF8047B704780B400AF4FF0B0431D
:10142C001B6803F00073B3F1007F01D1012300E0CE
:10143C0000231846BD465DF8047B704780B400AFAE
:10144C004FF0B043DB681B0A03F07F031846BD4620
:10145C005DF8047B704780B400AF4FF0B043DB689D
:10146C0003F060431846BD465DF8047B704780B4BA
:10147C0000AF4FF0B043DB6803F070031846BD4675
:10148C005DF8047B704780B400AF4FF0B043DB686D
:10149C0003F003031846BD465DF8047B704780B427
:1014AC0000AF4FF0B0439B6803F48033B3F5803F3B
:1014BC0001D1012300E000231846BD465DF8047BF2
:1014CC00704780B400AF4FF0B043D3F8083103F449
:1014DC000033B3F5003F01D1012300E0002318468F
:1014EC00BD465DF8047B704780B400AF4FF0B0434D
:1014FC00D3F8083103F48033B3F5803F01D10123D5
:10150C0000E000231846BD465DF8047B704780B4AC
:10151C0000AF4FF0B0439B6803F40033B3F5003FCA
:10152C0001D1012300E000231846BD465DF8047B81
:10153C00704780B400AF4FF0B0439B6803F4802336
:10154C00B3F5802F01D1012300E000231846BD46DE
:10155C005DF8047B7047000090B58DB000AF7860EB
:10156C007B68002B01D101237FE37B681B6803F0B0
:10157C002003002B00F09280FFF789FEF862FFF742
:10158C0082FFB862FB6A002B05D0FB6A0C2B4CD196
:10159C00BB6A012B49D1FFF717FE0346002B05D080
:1015AC007B68DB69002B01D101235EE37B685C6AFD
:1015BC00FFF72FFE03469C4214D97B685B6A1846E2
:1015CC0000F046FD0346002B01D001234DE37B6860
:1015DC005B6A1846FFF709FE7B681B6A1846FFF723
:1015EC002DFE13E07B685B6A1846FFF7FEFD7B68F7
:1015FC001B6A1846FFF722FE7B685B6A184600F0F0
:10160C0027FD0346002B01D001232EE300F0E0FC64
:10161C000346A54A1360A54B1B681846FFF74EF905
:10162C000346002B39D001231FE37B68DB69002BB9
:10163C001ED0FFF7ABFDFFF78FF9786208E0FFF7DC
:10164C008BF902467B6AD31A022B01D903230CE3D4
:10165C00FFF7BAFD0346002BF1D07B685B6A184696
:10166C00FFF7C3FD7B681B6A1846FFF7E7FD15E023
:10167C00FFF79BFDFFF770F9786208E0FFF76CF954
:10168C0002467B6AD31A022B01D90323EDE2FFF742
:10169C009BFD0346002BF1D100E000BF7B681B686B
:1016AC0003F00103002B4ED0FFF7F1FD3862FFF77A
:1016BC00EAFEF8613B6A082B05D03B6A0C2B0DD176
:1016CC00FB69032B0AD1FFF701FC0346002B39D031
:1016DC007B685B68002B35D10123C6E27B685B68B5
:1016EC00B3F5803F02D1FFF7D3FB01E0FFF7DFFB3F
:1016FC007B685B68002B12D0FFF72EF9786208E04C
:10170C00FFF72AF902467B6AD31A642B01D903230B
:10171C00ABE2FFF7DBFB0346002BF1D013E0FFF746
:10172C001BF9786208E0FFF717F902467B6AD31AB7
:10173C00642B01D9032398E2FFF7C8FB0346002B67
:10174C00F1D100E000BF7B681B6803F00203002BA3
:10175C0051D0FFF79CFDB861FFF795FE7861BB692E
:10176C00042B05D0BB690C2B13D17B69022B10D138
:10177C00FFF7DCFB0346002B05D07B68DB68002BF6
:10178C0001D1012371E27B681B691846FFF7E0FB6E
:10179C0031E07B68DB68002B19D0FFF7A9FBFFF762
:1017AC00DBF8786208E0FFF7D7F802467B6AD31AB9
:1017BC00022B01D9032358E2FFF7B8FB0346002B99
:1017CC00F1D07B681B691846FFF7C2FB13E0FFF7EB
:1017DC009EFBFFF7C1F8786208E0FFF7BDF8024600
:1017EC007B6AD31A022B01D903233EE2FFF79EFB3F
:1017FC000346002BF1D17B681B6803F00803002B18
:10180C0006D17B681B6803F01003002B00F0A4804A
:10181C007B685B69002B77D07B681B6803F0100337
:10182C00002B4BD0FFF755FC0346002B13D1FFF7D1
:10183C002EFCFFF791F8786208E0FFF78DF802466E
:10184C007B6AD31A022B01D903230EE2FFF741FC6A
:10185C000346002BF1D0FFF74EFCFFF77DF87862C2
:10186C0008E0FFF779F802467B6AD31A032B01D9FB
:10187C000323FAE1FFF761FC0346002BF1D07B68F0
:10188C009B691846FFF76BFCFFF712FCFFF764F837
:10189C0078620DE0FFF760F802467B6AD31A022BE0
:1018AC0006D90323E1E100BF180000201C00002032
:1018BC00FFF70FFC0346002BECD14DE0FFF7E7FBE5
:1018CC00FFF74AF8786208E0FFF746F802467B6AB1
:1018DC00D31A022B01D90323C7E1FFF7FAFB034606
:1018EC00002BF1D0FFF718FC08E0FFF735F80246A3
:1018FC007B6AD31A032B01D90323B6E1FFF71DFC36
:10190C000346002BF1D127E0FFF706FCFFF724F884
:10191C00786208E0FFF720F802467B6AD31A032BA3
:10192C0001D90323A1E1FFF708FC0346002BF1D1F9
:10193C00FFF7BEFBFFF710F8786208E0FFF70CF832
:10194C0002467B6AD31A022B01D903238DE1FFF7E0
:10195C00C0FB0346002BF1D17B681B6803F004032A
:10196C00002B5BD0A74B1B6803F48073002B14D1A6
:10197C00FFF75EFAFEF7F0FF786208E0FEF7ECFF87
:10198C0002467B6AD31A022B01D903236DE19D4BCE
:10199C001B6803F48073002BF0D07B689B68012BD1
:1019AC0002D1FFF71EFB0CE07B689B68052B04D172
:1019BC00FFF739FBFFF715FB03E0FFF723FBFFF7FE
:1019CC0043FB7B689B68002B14D0FEF7C5FF786245
:1019DC000AE0FEF7C1FF02467B6AD31A41F2883255
:1019EC00934201D9032340E1FFF73FFB0346002B51
:1019FC00EFD013E0FEF7B0FF78620AE0FEF7ACFF21
:101A0C0002467B6AD31A41F28832934201D90323EE
:101A1C002BE1FFF72AFB0346002BEFD17B681B68F9
:101A2C0003F04003002B2CD07B689B6A002B14D056
:101A3C00FFF7A3FAFEF790FF786208E0FEF78CFF41
:101A4C0002467B6AD31A022B01D903230DE1FFF75F
:101A5C00B6FA0346002BF1D013E0FFF79FFAFEF71E
:101A6C007BFF786208E0FEF777FF02467B6AD31AA9
:101A7C00022B01D90323F8E0FFF7A1FA0346002B50
:101A8C00F1D17B68DB6A002B00F0EE80FFF7FFFBE7
:101A9C0038614FF0B043DB68FB607B68DB6A022B7C
:101AAC0040F0B480FB6803F003027B681B6B9A4226
:101ABC0023D1FB6803F070027B685B6B9A421CD1EC
:101ACC00FB681B0A03F07F027B689B6B9A4214D164
:101ADC00FB6803F478127B68DB6B9A420DD1FB68D0
:101AEC0003F060627B681B6C9A4206D1FB6803F0C2
:101AFC0060427B685B6C9A425DD03B690C2B58D082
:101B0C004FF0B0431B6803F08063002B01D001231E
:101B1C00ABE0FFF772FCFEF71FFF786208E0FEF700
:101B2C001BFF02467B6AD31A022B01D903239CE0CC
:101B3C004FF0B0431B6803F00073002BEFD14FF054
:101B4C00B043DA68304B13407A68116B7A68526B89
:101B5C0011437A68926B120211437A68D26B11436B
:101B6C007A68126C11437A68526C0A434FF0B04198
:101B7C001343CB60FFF732FC4FF0B043DB684FF000
:101B8C00B04243F08053D360FEF7E6FE786208E083
:101B9C00FEF7E2FE02467B6AD31A022B01D903231D
:101BAC0063E04FF0B0431B6803F00073002BEFD0E1
:101BBC005AE0012359E04FF0B0431B6803F0007367
:101BCC00002B51D1FFF70AFC4FF0B043DB684FF00C
:101BDC00B04243F08053D360FEF7BEFE786208E05B
:101BEC00FEF7BAFE02467B6AD31A022B01D90323F5
:101BFC003BE04FF0B0431B6803F00073002BEFD0B9
:101C0C0032E000BF000400588C80C1113B690C2BE2
:101C1C0028D0FFF7F2FB4FF0B043DB684FF0B04237
:101C2C0023F00303D3604FF0B043DB684FF0B042B6
:101C3C0023F0885323F48033D360FEF78DFE786253
:101C4C0008E0FEF789FE02467B6AD31A022B01D903
:101C5C0003230AE04FF0B0431B6803F00073002B22
:101C6C00EFD101E0012300E0002318463437BD46D4
:101C7C0090BD00BF80B584B000AF786039607B68E0
:101C8C00002B01D101232DE1984B1B6803F00703B6
:101C9C003A689A421BD9954B1B6823F0070293496B
:101CAC003B6813430B60FEF757FEF86008E0FEF745
:101CBC0053FE0246FB68D31A022B01D9032311E110
:101CCC008A4B1B6803F007033A689A42EFD17B6892
:101CDC001B6803F00203002B16D07B689B68184628
:101CEC00FFF7E1FAFEF738FEF86008E0FEF734FE85
:101CFC000246FB68D31A022B01D90323F2E0FFF74B
:101D0C00CEFB0346002BF1D07B681B6803F020034D
:101D1C00002B16D07B685B691846FFF7D8FAFEF7E4
:101D2C001BFEF86008E0FEF717FE0246FB68D31AAC
:101D3C00022B01D90323D5E0FFF7C3FB0346002B8D
:101D4C00F1D07B681B6803F04003002B16D07B6836
:101D5C009B691846FFF7D1FAFEF7FEFDF86008E024
:101D6C00FEF7FAFD0246FB68D31A022B01D90323B6
:101D7C00B8E0FFF7B9FB0346002BF1D07B681B687A
:101D8C0003F00403002B16D07B68DB681846FFF7C2
:101D9C00CBFAFEF7E1FDF86008E0FEF7DDFD024648
:101DAC00FB68D31A022B01D903239BE0FFF7AFFB8F
:101DBC000346002BF1D07B681B6803F00803002B53
:101DCC0017D07B681B69DB001846FFF7C1FAFEF7DA
:101DDC00C3FDF86008E0FEF7BFFD0246FB68D31AAE
:101DEC00022B01D903237DE0FFF7A3FB0346002B55
:101DFC00F1D07B681B6803F00103002B43D07B6898
:101E0C005B68022B06D1FFF761F80346002B1ED14D
:101E1C00012367E07B685B68032B06D1FFF7FCFAB4
:101E2C000346002B13D101235CE07B685B68002B1D
:101E3C0006D1FFF7C9F90346002B08D1012351E065
:101E4C00FFF774F80346002B01D101234AE07B68AD
:101E5C005B681846FFF707FAFEF77EFDF8600AE0AC
:101E6C00FEF77AFD0246FB68D31A41F288329342A0
:101E7C0001D9032336E0FFF70AFA02467B685B6858
:101E8C009B009A42ECD1194B1B6803F007033A688C
:101E9C009A421BD2154B1B6823F0070213493B686F
:101EAC0013430B60FEF758FDF86008E0FEF754FD95
:101EBC000246FB68D31A022B01D9032312E00B4B09
:101ECC001B6803F007033A689A42EFD100F080F8E0
:101EDC000346074A1360FEF74BFD03461846FEF710
:101EEC00EDFC034618461037BD4680BD0040005837
:101EFC001800002090B585B000AFFFF7C8F97860E6
:101F0C007B68002B0AD1FFF784F903461B0903F009
:101F1C000F032B4A52F82330FB604BE07B68042BF9
:101F2C0002D1284BFB6045E07B68082B0AD1FEF7F9
:101F3C009DFF0346012B02D1234BFB603AE0234B60
:101F4C00FB6037E0FFF79FFA38603B68022B03D049
:101F5C003B68032B03D00DE01A4BBB6015E0FEF77A
:101F6C0085FF0346012B02D1174BBB600DE0174BCD
:101F7C00BB600AE0FFF74DF903461B0903F00F03A2
:101F8C000F4A52F82330BB6000BFFFF757FA0246E6
:101F9C00BB6803FB02F4FFF76AFA03461B09013323
:101FAC00B4FBF3F4FFF757FA03465B0F0133B4FBB2
:101FBC00F3F3FB60FB6818461437BD4690BD00BFB9
:101FCC00342E00080024F40000093D0000127A00B1
:101FDC0098B500AFFFF78EFF0446FFF7CDF9034627
:101FEC001B0903F00F03034A52F82330B4FBF3F33D
:101FFC00184698BDD42D000898B500AFFFF7E8FF40
:10200C000446FFF7D3F903461B0A03F00703044AFF
:10201C0052F8233003F01F0324FA03F3184698BD3B
:10202C00142E000898B500AFFFF7D2FF0446FFF757
:10203C00C9F90346DB0A03F00703044A52F82330BC
:10204C0003F01F0324FA03F3184698BD142E00085E
:10205C0090B585B000AF78607B68B02B03D9154B79
:10206C00DB6AFB6007E07B681B0903F00F03114A76
:10207C0052F82330FB60FFF78BF903461B0903F082
:10208C000F030D4A52F82330FA68B2FBF3F3BB602E
:10209C00BB680A4AA2FB03239C0CFEF7D9FE03463D
:1020AC001946204600F00CF8034618461437BD4676
:1020BC0090BD00BF342E0008D42D000883DE1B43D6
:1020CC0090B593B000AF78603960374B07F12804B6
:1020DC000FCB84E80F00354A07F11C0307CA83E8CD
:1020EC000700334B07F10C040FCB84E80F000023DF
:1020FC007B643B68B3F5007F1AD100233B6413E08B
:10210C003B6C9B0048333B4453F8203C7A689A4222
:10211C0007D83B6C9B0048333B4453F83C3C7B64F6
:10212C0020E03B6C01333B643B6C032BE8D919E09A
:10213C000023FB6313E0FB6B9B0048333B4453F8D9
:10214C002C3C7A689A4207D8FB6B9B0048333B4483
:10215C0053F83C3C7B6405E0FB6B0133FB63FB6B8E
:10216C00022BE8D9134B1B6823F0070211497B6C37
:10217C0013430B60FEF7F0FBB86308E0FEF7ECFBD3
:10218C000246BB6BD31A022B01D9032307E0094B80
:10219C001B6803F007037A6C9A42EFD100231846B0
:1021AC004C37BD4690BD00BFA82D0008B82D0008C7
:1021BC00C42D00080040005880B483B000AF786094
:1021CC004FF0B043D3F888207B68134018460C3787
:1021DC00BD465DF8047B704780B483B000AF786077
:1021EC004FF0B043D3F888207B68134018460C3767
:1021FC00BD465DF8047B704780B582B000AF786057
:10220C007B68002B01D1012342E07B68D3F884303A
:10221C00002B06D17B68002283F880207868FEF7BB
:10222C006FFA7B682422C3F884207B681B681A68C9
:10223C007B681B6822F001021A60786800F0C2F813
:10224C000346012B01D1012322E07B689B6A002B02
:10225C0002D0786800F0DEFA7B681B685A687B68ED
:10226C001B6822F490425A607B681B689A687B68F2
:10227C001B6822F02A029A607B681B681A687B68CC
:10228C001B6842F001021A60786800F065FB034697
:10229C0018460837BD4680BD80B58AB002AFF860DD
:1022AC00B9603B601346FB80FB68D3F88430202B6D
:1022BC0040F08380BB68002B02D0FB88002B01D13F
:1022CC0001237BE0FB6893F88030012B01D10223C2
:1022DC0074E0FB68012283F88020FB680022C3F8BD
:1022EC008C20FB682122C3F88420FEF735FB786133
:1022FC00FB68FA88A3F85420FB68FA88A3F85620E8
:10230C00FB689B68B3F5805F08D1FB681B69002BE9
:10231C0004D10023FB61BB68BB6103E0BB68FB61BC
:10232C000023BB61FB68002283F880202CE03B6813
:10233C0000937B6900228021F86800F058FB03466B
:10234C00002B01D0032339E0FB69002B0BD1BB69B7
:10235C001B881A46FB681B68C2F308029A62BB69A9
:10236C000233BB6107E0FB691A78FB681B689A6251
:10237C00FB690133FB61FB68B3F856309BB2013B40
:10238C009AB2FB68A3F85620FB68B3F856309BB2A0
:10239C00002BCCD13B6800937B6900224021F8686C
:1023AC0000F025FB0346002B01D0032306E0FB685D
:1023BC002022C3F88420002300E002231846203793
:1023CC00BD4680BD2DE9B04F8CB000AF78610023C5
:1023DC0087F82A307B699A687B691B691A437B6989
:1023EC005B691A437B69DB691343FB627B691B687E
:1023FC001A68AF4B13407A691268F96A0B43136081
:10240C007B691B685B6823F440517B69DA687B69E4
:10241C001B680A435A607B699B69FB627B691B687A
:10242C00A44A934204D07B691B6AFA6A1343FB6289
:10243C007B691B689B6823F06E4323F430637A69D5
:10244C001268F96A0B4393607B691B68DB6A23F0A3
:10245C000F017B695A6A7B691B680A43DA627B69E4
:10246C001B68954A934225D10320FFF7A5FE03462E
:10247C00032B1BD801A252F823F000BF99240008AB
:10248C00A9240008A1240008B1240008012387F81E
:10249C002B3042E0022387F82B303EE0042387F8F0
:1024AC002B303AE0082387F82B3036E0102387F8DE
:1024BC002B3032E07B691B687E4A93422AD14FF461
:1024CC004060FFF789FE0346B3F5406F1AD0B3F5B1
:1024DC00406F1BD8B3F5006F0CD0B3F5006F15D857
:1024EC00002B03D0B3F5806F08D00FE0002387F8E2
:1024FC002B3012E0022387F82B300EE0042387F8F0
:10250C002B300AE0082387F82B3006E0102387F8DD
:10251C002B3002E0102387F82B307B691B68654A4F
:10252C00934240F0978097F82B30082B23D801A2C8
:10253C0052F823F065250008832500086D25000856
:10254C0083250008732500088325000883250008CF
:10255C00832500087B250008FFF74EFD786210E00C
:10256C00564B7B620DE0FFF7C5FC786209E04FF437
:10257C0000437B6205E000237B62012387F82A304D
:10258C0000BF7B6A002B00F02B817B695B6A4C4A95
:10259C0032F813301A467B6AB3FBF2F3BB617B69EA
:1025AC005A6813465B001344BA699A4205D37B6997
:1025BC005B681B03BA699A4203D9012387F82A3056
:1025CC000EE17B6A0022BB60FA607B695B6A3C4A65
:1025DC0032F813309BB200223B607A60D7E90023BB
:1025EC00D7E90201FDF7C4FD02460B461046194619
:1025FC004FF000024FF000030B0243EA106302029B
:10260C0079694968490800200C46054612EB040814
:10261C0043EB05097B695B6800229A469346524658
:10262C005B4640464946FDF7A3FD02460B46134662
:10263C003B623B6AB3F5407F08D33B6AB3F5801F1E
:10264C0004D27B691B683A6ADA60C9E0012387F817
:10265C002A30C5E07B69DB69B3F5004F6ED197F882
:10266C002B30013B072B2DD801A252F823F000BFD1
:10267C009D260008A5260008D1260008AB260008D8
:10268C00D1260008D1260008D1260008B326000860
:10269C00FFF7C8FC78621BE0084B7B6218E0FFF781
:1026AC0029FC786214E04FF400437B6210E000BF19
:1026BC00F369FFCF00800040003801400024F40093
:1026CC00742E000800237B62012387F82A3000BF98
:1026DC007B6A002B00F084807B695B6A4B4A32F882
:1026EC0013301A467B6AB3FBF2F35A007B695B68C2
:1026FC005B081A447B695B68B2FBF3F39BB23B62E9
:10270C003B6A0F2B16D93B6AB3F5803F12D23B6A5A
:10271C009BB223F00F03FB833B6A5B089BB203F075
:10272C0007039AB2FB8B1343FB837B691B68FA8B01
:10273C00DA6055E0012387F82A3051E097F82B3006
:10274C00013B072B21D801A252F823F0792700086E
:10275C00812700089727000887270008972700087B
:10276C0097270008972700088F270008FFF75AFCC7
:10277C00786210E0264B7B620DE0FFF7BBFB7862C2
:10278C0009E04FF400437B6205E000237B620123E8
:10279C0087F82A3000BF7B6A002B21D07B695B6AEB
:1027AC001A4A32F813301A467B6AB3FBF2F27B6991
:1027BC005B685B081A447B695B68B2FBF3F39BB202
:1027CC003B623B6A0F2B08D93B6AB3F5803F04D2BE
:1027DC007B691B683A6ADA6002E0012387F82A30C9
:1027EC007B690122A3F86A207B690122A3F8682087
:1027FC007B6900221A677B6900225A6797F82A3096
:10280C0018463037BD46BDE8B08F00BF742E0008A7
:10281C000024F40080B483B000AF78607B689B6ABE
:10282C0003F00103002B0AD07B681B685B6823F460
:10283C0000317B68DA6A7B681B680A435A607B68E4
:10284C009B6A03F00203002B0AD07B681B685B6851
:10285C0023F480317B681A6B7B681B680A435A60CF
:10286C007B689B6A03F00403002B0AD07B681B680F
:10287C005B6823F480217B685A6B7B681B680A4376
:10288C005A607B689B6A03F00803002B0AD07B68B4
:10289C001B685B6823F400417B689A6B7B681B6840
:1028AC000A435A607B689B6A03F01003002B0AD022
:1028BC007B681B689B6823F480517B68DA6B7B68B0
:1028CC001B680A439A607B689B6A03F02003002B09
:1028DC000AD07B681B689B6823F400517B681A6CD8
:1028EC007B681B680A439A607B689B6A03F0400311
:1028FC00002B1AD07B681B685B6823F480117B6803
:10290C005A6C7B681B680A435A607B685B6CB3F536
:10291C00801F0AD17B681B685B6823F4C0017B684D
:10292C009A6C7B681B680A435A607B689B6A03F04D
:10293C008003002B0AD07B681B685B6823F40021A2
:10294C007B68DA6C7B681B680A435A6000BF0C37E3
:10295C00BD465DF8047B704780B586B002AF7860E9
:10296C007B680022C3F88C20FDF7F6FFF8607B68CB
:10297C001B681B6803F00803082B0ED16FF07E4315
:10298C000093FB6800224FF40011786800F02FF8D8
:10299C000346002B01D0032325E07B681B681B68D2
:1029AC0003F00403042B0ED16FF07E430093FB68FD
:1029BC0000224FF48001786800F019F80346002BD0
:1029CC0001D003230FE07B682022C3F884207B68AE
:1029DC002022C3F888207B680022DA667B680022FC
:1029EC0083F88020002318461037BD4680BD80B583
:1029FC009CB000AFF860B9603B601346FB71A9E076
:102A0C00BB6FB3F1FF3F00F0A580FDF7A5FF0246B9
:102A1C003B68D31ABA6F9A4202D3BB6F002B40D1DA
:102A2C00FB681B683B653B6D53E8003FFB64FB6C2C
:102A3C0023F4D0737B66FB681B681A467B6EFB65C0
:102A4C00BA65B96DFA6D41E800237B657B6D002B8F
:102A5C00E6D1FB681B680833FB63FB6B53E8003F54
:102A6C00BB63BB6B23F001033B66FB681B6808333D
:102A7C003A6EBA647B64796CBA6C41E800233B64AF
:102A8C003B6C002BE5D1FB682022C3F88420FB684B
:102A9C002022C3F88820FB68002283F880200323BF
:102AAC0069E0FB681B681B6803F00403002B51D022
:102ABC00FB681B68DB6903F40063B3F5006F49D155
:102ACC00FB681B684FF400621A62FB681B68BB62F0
:102ADC00BB6A53E8003F7B627B6A23F4D073FB66CE
:102AEC00FB681B681A46FB6E7B633A63396B7A6B27
:102AFC0041E80023FB62FB6A002BE6D1FB681B68F4
:102B0C0008337B617B6953E8003F3B613B6923F0F1
:102B1C000103BB66FB681B680833BA6E3A62FB6143
:102B2C00F9693A6A41E80023BB61BB69002BE5D126
:102B3C00FB682022C3F88420FB682022C3F888207D
:102B4C00FB682022C3F88C20FB68002283F88020CD
:102B5C00032310E0FB681B68DA69BB681340BA6892
:102B6C009A420CBF01230023DBB21A46FB799A422E
:102B7C003FF446AF002318467037BD4680BD80B485
:102B8C0085B000AF78607B6893F88030012B01D161
:102B9C00022327E07B68012283F880207B682422B3
:102BAC00C3F884207B681B681B68FB607B681B6810
:102BBC001A687B681B6822F001021A60FB6823F01C
:102BCC000053FB607B6800225A667B681B68FA68BE
:102BDC001A607B682022C3F884207B68002283F86B
:102BEC008020002318461437BD465DF8047B7047DF
:102BFC0080B584B000AF786039607B6893F8803022
:102C0C00012B01D102232DE07B68012283F8802067
:102C1C007B682422C3F884207B681B681B68FB60DC
:102C2C007B681B681A687B681B6822F001021A60BB
:102C3C007B681B689B6823F060417B681B683A6863
:102C4C000A439A60786800F04FF87B681B68FA6852
:102C5C001A607B682022C3F884207B68002283F8EA
:102C6C008020002318461037BD4680BD80B584B047
:102C7C0000AF786039607B6893F88030012B01D10C
:102C8C0002232DE07B68012283F880207B682422BC
:102C9C00C3F884207B681B681B68FB607B681B681F
:102CAC001A687B681B6822F001021A607B681B683B
:102CBC009B6823F060617B681B683A680A439A60E2
:102CCC00786800F011F87B681B68FA681A607B68FA
:102CDC002022C3F884207B68002283F88020002304
:102CEC0018461037BD4680BD80B485B000AF786003
:102CFC007B685B6E002B08D17B680122A3F86A20ED
:102D0C007B680122A3F8682031E00823FB730823B9
:102D1C00BB737B681B689B685B0EDBB203F007031D
:102D2C007B737B681B689B685B0FDBB203F007034C
:102D3C003B73BB7B3A7B11498A5C02FB03F33A7B06
:102D4C000F498A5C93FBF2F39AB27B68A3F86A2072
:102D5C00FB7B7A7B09498A5C02FB03F37A7B08498B
:102D6C008A5C93FBF2F39AB27B68A3F8682000BFED
:102D7C001437BD465DF8047B704700BF8C2E0008ED
:102D8C00942E0008F8B500BFF8BC08BC9E467047EE
:0C2D9C00F8B500BFF8BC08BC9E467047AC
:102DA800120000002400000036000000400000006F
:102DB800060000000C0000001000000000000000E9
:102DC80001000000020000000300000001000000F4
:102DD80003000000050000000100000001000000E1
:102DE800060000000A0000002000000002000000A9
:102DF800040000000800000010000000400000006F
:102E08008000000000010000000200000000000037
:102E180000000000000000000000000001000000A9
:102E2800020000000300000004000000A08601006A
:102E3800400D0300801A060000350C0040420F00C8
:102E480080841E0000093D0000127A000024F4006E
:102E580000366E010048E801006CDC02000000004A
:102E68000000000000000000000000000100020057
:102E78000400060008000A000C00100020004000B2
:102E88008000000101010103070100000804020499
:042E9800080101012B
:082E9C0010D3FF7F01000000CC
:042EA40061010008C0
:042EA8003D010008E0
:102EAC0048656C6C6F20576F726C640A00000000F0
:0C2EBC0000093D001000000001000000B3
:0400000508000831B6
:00000001FF
